{
  "contractName": "BuyerQueue",
  "abi": [
    {
      "inputs": [],
      "payable": false,
      "stateMutability": "nonpayable",
      "type": "constructor"
    },
    {
      "constant": false,
      "inputs": [
        {
          "name": "addr_",
          "type": "address"
        }
      ],
      "name": "enqueue",
      "outputs": [],
      "payable": false,
      "stateMutability": "nonpayable",
      "type": "function"
    },
    {
      "constant": false,
      "inputs": [],
      "name": "dequeue",
      "outputs": [],
      "payable": false,
      "stateMutability": "nonpayable",
      "type": "function"
    },
    {
      "constant": true,
      "inputs": [],
      "name": "qsize",
      "outputs": [
        {
          "name": "",
          "type": "uint8"
        }
      ],
      "payable": false,
      "stateMutability": "view",
      "type": "function"
    }
  ],
  "bytecode": "0x608060405234801561001057600080fd5b50600560008001816100229190610064565b5060008060020160006101000a81548160ff021916908360ff16021790555060008060020160016101000a81548160ff021916908360ff1602179055506100b5565b81548183558181111561008b5781836000526020600020918201910161008a9190610090565b5b505050565b6100b291905b808211156100ae576000816000905550600101610096565b5090565b90565b610370806100c46000396000f3fe608060405260043610610057576000357c0100000000000000000000000000000000000000000000000000000000900463ffffffff1680633e3c9eae1461005c5780638f807f6b1461008d578063957908d1146100de575b600080fd5b34801561006857600080fd5b506100716100f5565b604051808260ff1660ff16815260200191505060405180910390f35b34801561009957600080fd5b506100dc600480360360208110156100b057600080fd5b81019080803573ffffffffffffffffffffffffffffffffffffffff169060200190929190505050610106565b005b3480156100ea57600080fd5b506100f3610114565b005b60006101016000610120565b905090565b61011160008261014e565b50565b61011e600061023d565b565b60008160020160009054906101000a900460ff168260020160019054906101000a900460ff16039050919050565b80826000018360020160019054906101000a900460ff1660ff1681548110151561017457fe5b9060005260206000200160006101000a81548173ffffffffffffffffffffffffffffffffffffffff021916908373ffffffffffffffffffffffffffffffffffffffff16021790555042826001018360020160019054906101000a900460ff1660ff168154811015156101e257fe5b9060005260206000200181905550816000018054905060ff1660018360020160019054906101000a900460ff160160ff1681151561021c57fe5b068260020160016101000a81548160ff021916908360ff1602179055505050565b8060020160009054906101000a900460ff1660ff168160020160019054906101000a900460ff1660ff16141561027257610341565b806000018160020160009054906101000a900460ff1660ff1681548110151561029757fe5b9060005260206000200160006101000a81549073ffffffffffffffffffffffffffffffffffffffff0219169055806001018160020160009054906101000a900460ff1660ff168154811015156102e957fe5b9060005260206000200160009055806000018054905060ff1660018260020160009054906101000a900460ff160160ff1681151561032357fe5b068160020160006101000a81548160ff021916908360ff1602179055505b5056fea165627a7a7230582084e26ea0e3da867ea45cec5bc72272c284d28878692d7035b020d271a95520eb0029",
  "source": "pragma solidity ^0.5.0;\n\nimport './Queue.sol';\n\n/**\n * @title Queue\n * @dev Data structure contract used in `Crowdsale.sol`\n * Allows buyers to line up on a first-in-first-out basis\n * See this example: http://interactivepython.org/courselib/static/pythonds/BasicDS/ImplementingaQueueinPython.html\n */\n\n\ncontract BuyerQueue is Queue {\n    QueueSt buyers;\n\n    constructor() public {\n        buyers.data.length = 5;\n        buyers.front = 0;\n        buyers.back = 0;\n    }\n    function enqueue(address addr_) public {\n        push(buyers, addr_);\n    }\n    function dequeue() public {\n        pop(buyers);\n    }\n    function qsize() public view returns (uint8) {\n        return qsize(buyers);\n    }\n}\n",
  "sourcePath": "/home/admin/development/bc/fa17-midterm/contracts/BuyerQueue.sol",
  "compiler": {
    "name": "solc",
    "version": "0.5.0+commit.1d4f565a.Emscripten.clang"
  },
  "schemaVersion": "3.0.0",
  "updatedAt": "2018-12-19T03:57:30.404Z",
  "devdoc": {
    "details": "Data structure contract used in `Crowdsale.sol` Allows buyers to line up on a first-in-first-out basis See this example: http://interactivepython.org/courselib/static/pythonds/BasicDS/ImplementingaQueueinPython.html",
    "methods": {},
    "title": "Queue"
  },
  "userdoc": {
    "methods": {}
  }
}